:020000040800F2
:1000000090130020450100084B030008F10200088E
:1000100049030008410200088511000800000000A3
:10002000000000000000000000000000B50D000806
:100030004302000800000000B7010008490E000854
:100040005F0100085F0100085F0100085F01000810
:100050005F0100085F0100085F0100085F01000800
:100060005F0100085F0100085F0100085F010008F0
:100070005F0100085F0100085F0100085F010008E0
:100080005F0100085F0100085F0100085F010008D0
:100090005F0100085F0100085F0100085F010008C0
:1000A0005F0100085F0100085F0100085F010008B0
:1000B0005F0100085F0100085F0100085F010008A0
:1000C0005F0100085F0100085F0100085F01000890
:1000D0005F010008011000085F01000841100008DE
:1000E0005F0100085F0100085F0100085F01000870
:1000F0005F0100085F0100085F0100085F01000860
:100100005F0100085F0100085F0100085F0100084F
:100110005F0100085F0100085F0100085F0100083F
:100120005F0100085F0100085F0100085F0100082F
:10013000DFF80CD000F072F800480047FD1100080D
:10014000901300200648804706480047FEE7FEE778
:10015000FEE7FEE7FEE7FEE7FEE7FEE7FEE7FEE777
:100160005D0E000831010008EFF3108072B6704791
:1001700080F310887047204C204D25604FF000041C
:1001800084F309881E4C4FF0010525701D4C4FF07B
:100190008055256062B6FEE730B41A4C4FF08055AA
:1001A000256030BC704730B4164C4FF08055256048
:1001B00030BC704700BF72B6EFF3098028B1203819
:1001C00080E8F00F10490968086000B50F488047C3
:1001D0005DF804EB0E480F490A7802700A480E4990
:1001E0000A680260106890E8F00F203080F30988F8
:1001F0004EF0040E62B6704720ED00E00000FFFFF5
:100200001B00002004ED00E0340000206508000819
:1002100018000020190000203C000020064C074D6B
:1002200006E0E06840F0010394E8070098471034C6
:10023000AC42F6D3FFF780FF4813000868130008AC
:10024000FEE770472DE9F041CA780025D30602F099
:100250000F0201D58B781A430B884FF00F084FF02F
:10026000010C13F0FF0F1CD0D0F800400E880CFAE0
:1002700005F31E409E4210D1AF0008FA07F624EAAB
:10028000060602FA07F43443CE78282E02D0482E10
:1002900002D002E0436100E003616D1C082DE5D34C
:1002A00004600B88FF2B1DD94468002505F1080662
:1002B0000CFA06F30E881E409E420FD1AF0008FADA
:1002C00007F624EA060602FA07F43443CE78282E0D
:1002D00000D14361CE78482E00D103616D1C082DFA
:1002E000E4D34460BDE8F08141617047016170472B
:1002F000FEE7000038B50121082000F003FD4FF4AF
:100300008150ADF8000010208DF8030003200C4C44
:100310008DF8020069462046FFF794FF2021204611
:10032000FFF7E4FF0121402000F0ECFC054C69469A
:100330002046FFF787FF20212046FFF7D7FF38BD73
:10034000000C014000180140FEE77047F0B50F2295
:10035000C57803784FF0E0210124E5B1D1F80C5DB8
:10036000467805F4E065C5F5E0652D0AC5F104079A
:10037000EA408578BE40154035430B442A0183F896
:1003800000240078420900F01F00844001EB820045
:10039000C0F80041F0BD03F01F008440580901EB94
:1003A0008000C0F88041F0BD30B587B000F086F81D
:1003B000354D00242C63AC70EC702C72EC71EC6049
:1003C000EC61AC616C616C70AC71204605F134017C
:1003D0000C54401CC0B20828FAD32C716C71AC626A
:1003E0002C6200F019FBC821284800F04DFB27497A
:1003F0000020421C134600EB800092B201EB80000B
:1004000002EB820201EB82020470426098B209287A
:10041000EFD300EB800001EB8000047044602961A1
:1004200000F0D4FA00F03AFB194801AC0323002293
:1004300080210FC44FF6FF73009300F5FE723F2337
:100440000021144800F0D4F805AA13A13F2000F0C1
:1004500021F90E4801AC032300228021C8300FC4CB
:100460004FF6FE73009300F5FE723E2300210E4806
:1004700000F0BEF805AA0DA13E2000F00BF907B070
:10048000BDE8304000F01BB8140000200C0500202F
:10049000D4070020410C000875432F4F532D4949C4
:1004A0002049646C650000005D0C000875432F4F07
:1004B000532D494920537461740000007047704700
:1004C0000449C879012804D18878FF2801D2401C4A
:1004D000887070471400002070B5144CE079012832
:1004E00022D1FFF741FE0546A07820B1401E10F052
:1004F000FF00A07013D1E07888B900F013FB0C481E
:10050000617950F82100A0622279914207D0816B75
:10051000491C8163E068401CE060FFF744FE284608
:10052000BDE87040FFF724BE70BD0000140000203D
:10053000D409002010B5094CE07900280CD100F056
:10054000F1FA60790649207151F82000A06220621A
:10055000BDE81040FFF70FBE10BD000014000020E2
:10056000D4090020704700002DE9FE4306460F46DF
:1005700090461C46FFF7F8FD1A49097821B1FFF7AC
:10058000F7FD3C20BDE8FE83174D55F8241019B146
:10059000FFF7EEFD2820F5E7012145F82410FFF7CD
:1005A000E7FD002342463946304600F0DBF80023E1
:1005B0001A4619468DE80E000146204600F0C2FAA0
:1005C000060008D0FFF7D0FD002145F82410FFF702
:1005D000CFFD3046D6E7054800780128F9D100F074
:1005E0007DFAF6E716000020D40900201B00002049
:1005F0002DE9FF4F83B08046DDE910B6894692466B
:100600001C46149FFFF7B0FD1E49097829B1FFF77A
:10061000AFFD3C2007B0BDE8F08F1B4D55F824100E
:1006200019B1FFF7A5FD2820F4E7012145F82410B2
:10063000FFF79EFD3A463046129900F057FB3B46C5
:1006400052464946404600F08DF8DDE912128DE829
:10065000860001465B463246204600F073FA0600EB
:1006600008D0FFF781FD002145F82410FFF780FD39
:100670003046CFE7054800780128F9D100F02EFA7E
:10068000F6E7000016000020D40900201B0000201F
:100690007047704770B5054611480E4614460078FD
:1006A00010B11220107070BDFFF75EFD0146FF2DE6
:1006B00003D10C48006890F832500B4850F82500E0
:1006C000432540B1012806D0C6640846FFF750FD17
:1006D0000020207070BD0846FFF74AFD257070BDF0
:1006E0001600002034000020D409002070470000CC
:1006F0002DE9F0410446002008600D464860FFF7F0
:1007000033FD0146FF2C03D11448006890F83240B5
:10071000134850F8240058B1012809D0028AD207A2
:100720000CD0D0E9027600240846FFF721FD0BE04B
:100730000846FFF71DFD4320BDE8F0810846FFF79E
:1007400017FD4520F8E7641C01CF0028FBD0A0006E
:100750002860301B800068600020EDE73400002036
:10076000D40900204FF080731360131F18606FF0DE
:10077000010042F8080CA2F138004FF012334FF09C
:100780000332C0E90A234FF0023242624FF00132D5
:10079000C0E907124FF0113181614FF01031416112
:1007A0004FF0093101614FF00831C1604FF007315E
:1007B00081604FF0063141604FF0053140F8041977
:1007C0004FF004310160704770B50446FFF7CCFC70
:1007D00003462048FF2C006805D090F83200A04264
:1007E00005D1012504E0012590F8324000E0002504
:1007F000194850F8240068B1012810D090F834202E
:10080000164C90F83560A15CF643F6B23140A15425
:100810000AD010E01846FFF7ABFC482070BD184620
:10082000FFF7A6FC432070BD0D4A90F836101478EF
:1008300024EA0101117010F8301F41F00801017025
:100840001846FFF795FC012D01D100F047F9002073
:1008500070BD000034000020D409002048000020B2
:100860001A0000207047000070B504461448007854
:10087000002824D113480078002820D1002C1ED055
:10088000FFF772FC03461048104D016891F83400E0
:1008900091F835602A5CF643F6B232402A5406D10C
:1008A0000B4A91F83600157825EA000010701846BA
:1008B000CC62FFF75DFCBDE8704000F00FB970BD81
:1008C00016000020170000203400002048000020FF
:1008D0001A00002010B5104C24780CB1552010BD22
:1008E0000E4C24780CB1322010BD4FF47A7463435F
:1008F000B3FBF4F34FF461646043C1EB011100EB0F
:100900008100104400EB4001C1EBC01003EBC000BC
:10091000FFF7AAFF002010BD1600002017000020DE
:100920002DE9F04100F050F8FFF71EFC254D296B32
:10093000491C2963FFF71CFCE879012840D1687A3B
:1009400001264FF0000828B1012839D0022803D031
:1009500085F80980EC6A2FE06E72FBE7FFF704FC74
:10096000E16A31B3491EE16223D194F8301011F0ED
:10097000370F06D001F0C80184F8301084F83160D8
:1009800001E084F8318094F83010090711D404F1A3
:100990003404AA79A17841EA0201A971094A2178AF
:1009A00002F134026778535CA4F1340443EA07038C
:1009B00053546469FFF7DCFB94F832003F28CDD133
:1009C000BDE8F081140000207047000010B55021F0
:1009D0000E4800F059F800200C4A0146431C1C4602
:1009E00002EB00109BB202EB03130170436008A3FB
:1009F000C360A0B20428F1D302EB00100170416083
:100A000003A1C1600348026010BD0000C40E0020B5
:100A10003F0000005000002000B54FF47C711648E4
:100A200000F032F84FF48071144800F02DF8124AAB
:100A30000020411CCBB2C0EBC00000EB4000C3EB78
:100A4000C30302EB800003EB430302EB8303436128
:100A50000BA3C364C8B20B28EBD3C0EBC00000EB00
:100A6000400002EB800006A30021C36441610548F9
:100A70004262C16200BD0000D40A0020D4090020F7
:100A80003F00000014000020002203E0491E00F88F
:100A9000012B89B20029F9D17047000010B57821E7
:100AA0000C48FFF7F1FF0B4A0020411C8BB200EB12
:100AB000400003EB430302EBC30342F8303088B23B
:100AC0000428F2D300EB4000002142F83010024825
:100AD000026010BD140F00205400002070B5FFF715
:100AE00043FB0E4C0546A07898B9E07888B900F031
:100AF00019F80B49607951F82010A16222799042CF
:100B000007D0886B401C8863E068401CE060FFF7FA
:100B100043FB2846BDE87040FFF72ABB14000020C5
:100B2000D40900200649054A01F134038879105C94
:100B30001B5CD25C02EBC000487170474812000891
:100B4000140000202DE9FF5F0746DDE90EBA0D46CF
:100B500090469946FFF708FB364E746AF4B3616914
:100B600018347162FFF704FB44F8185CA77600257F
:100B7000257665766561A4F1100044F814ACA0E810
:100B80000009109824F8080C24F8069CE577FA0868
:100B9000227707F00701012000FA02F2E176A2773E
:100BA000884060776560E560A5602562A562656242
:100BB00021A0E562C4E90C50A4F118044FEA050035
:100BC00004EB8001401C0D6510F0FF00F8D02046BA
:100BD000FFF7C8FC2046FFF75BFD00E026E0FFF7CB
:100BE000C3FA0146154840F82740F06AC4E90505F4
:100BF00000B18461F46204F13404B279A07840EA6F
:100C00000200B0710B48227800F134006478835CF4
:100C100043EA04038354307A00F10100307208463D
:100C2000FFF7A6FA002004B0BDE8F09FFFF7A0FA96
:100C30004220F8E7140000203F000000D409002003
:100C4000054C00BFFFF790FAE169491CE161FFF72D
:100C50008FFAFFF71EFDF5E714000020144C02E0A8
:100C6000C820FFF701FE60780028F9D06421606990
:100C70000025B0FBF1F0606118B92570FF20FFF787
:100C8000A3FDFFF771FAE169C4E90615FFF770FAF1
:100C9000D4E90510B0FBF1F0C0F164002070FFF75B
:100CA00025FD00F007F86420FFF7DEFDE9E700000E
:100CB000140000207CB50C4D002469462046FFF747
:100CC00017FD58B955F8240040B1012806D0D0E9E5
:100CD000021201EB8201416401998164641CE4B257
:100CE0003F2CEAD97CBD0000D4090020D30707D0EF
:100CF000920705D50022002902D004C0491EFAE758
:100D000070470000044A0029916901D0014300E0C6
:100D1000814391617047000000100240214910B5E5
:100D20004B68214A13F00C0303D0042B01D0082B8D
:100D300026D002604A681D4B02F0F00212099C5C4A
:100D40000268E24042604C6804F4E064240A1C5DDE
:100D500022FA04F484604C6804F460544FEAD4240A
:100D60001B5D22FA03F2C2604968104B01F4404156
:100D70004FEA91311B1F595CB2FBF1F1016110BDCB
:100D80004A684B68022402F4701204EB924213F496
:100D9000803F02D04B689B0301D5054B00E0024B1E
:100DA0005A43C6E70010024000127A0004000020F7
:100DB00000093D007047000021480021026842F40C
:100DC000803202604FF4A0630268491C12F4003FB5
:100DD00001D19942F8D10168890330D519490A68CF
:100DE00042F010020A600A6822F003020A600A68F0
:100DF00042F002020A604168416041684160416816
:100E000041F480614160416821F47C114160416896
:100E100041F4E8114160016841F0807101600168AE
:100E20008901FCD5416821F003014160416841F02E
:100E3000020141604168C1F381010229FAD1704782
:100E4000001002400020024010B5FFF739FBFFF709
:100E500067FDBDE81040FFF73FBB00000C4801688C
:100E600041F00101016041680A4A11404160016896
:100E7000094A11400160016821F480210160416844
:100E800021F4FE01416000218160FFF795BF000061
:100E9000001002400000FFF8FFFFF6FE00F05EF8D1
:100EA0000C4C20212046FFF721FA00226423114632
:100EB0001046FFF70FFD08A000F066F9202120463C
:100EC000FFF712FA0022642311461046FFF702FDD5
:100ED000E7E7000000180140686F6C6C65207769D7
:100EE0006C6C69616D0A00000A4C20212046FFF7F6
:100EF000FDF90022C82311461046FFF7EBFC202124
:100F00002046FFF7F1F90022C82311461046FFF7EB
:100F1000E1FCEAE7000C014005230C4A00210C48E3
:100F2000FFF722FB06230B4A00210B48FFF71CFBAF
:100F30000022C82311461046FFF7CCFC0022C8232C
:100F400011461046FFF7C6FCF2E7000078030020C8
:100F50009D0E000808050020E90E000810B586B0B7
:100F6000012144F20400FFF7CDFE4FF40070ADF80C
:100F7000100018208DF8130003201F4C8DF812006C
:100F800004A92046FFF75EF92015ADF810000420F3
:100F90008DF8130004A92046FFF754F925208DF899
:100FA000140001208DF8150002218DF816108DF81F
:100FB000170005A8FFF7CAF94FF4E13000900020B0
:100FC000ADF80400ADF80600ADF80800ADF80C006F
:100FD0000C200A4CADF80A006946204600F070F873
:100FE0000121204600F042F8012240F2255120461E
:100FF00000F04DF806B010BD000801400038014077
:1010000010B5FFF75DFA0A4C2021204600F038F8B1
:10101000012809D1204600F0ADF80146204600F035
:10102000ADF804A000F0B0F8BDE81040FFF754BAE6
:1010300000380140496E746572727570740A000060
:1010400010B5084C2021204600F01AF8012808D1DC
:10105000204600F08FF80146BDE81040024800F03D
:101060008DB810BD0048004000380140002981893A
:1010700002D041F4005101E021F400518181704718
:101080000246002012880A4200D00120704710B5A5
:10109000C1F3421301F01F040121A140012B07D02D
:1010A000022B07D01430002A026805D00A4304E05E
:1010B0000C30F8E71030F6E78A43026010BD0000FC
:1010C00030B50446008A85B00D464CF6FF710840E5
:1010D000E98801432182A1894EF6F3100140A888D6
:1010E0002A8910436A890A431043A081A08A4FF6D7
:1010F000FF410840A9890143A1826846FFF70EFE1F
:101100001B48844201D1039800E00298A189090498
:10111000002900EBC00101EB0010296802DA4FEA58
:10112000410101E04FEA8101B0FBF1F06422B0FB24
:10113000F2F14FEA01114FEA11136FF018056B43FA
:10114000A58900EB83004FF032032D0406D503EB95
:10115000C000B0FBF2F000F0070005E003EB001068
:10116000B0FBF2F000F00F000843208105B030BD65
:10117000003801408088C0F308007047C1F30801BF
:1011800081807047FEE70000014A024900F013B871
:10119000D91100085800002002E008C8121F08C139
:1011A000002AFAD170477047002001E001C1121FE8
:1011B000002AFBD170472DE9F04104460F46164640
:1011C000002503E03946B0476D1C641C20780028D8
:1011D000F8D12846BDE8F08110B50446C1B20548F3
:1011E000FFF7CCFF044800BFB0F800180906FBD594
:1011F000204610BD003801400030014010B5FFF717
:101200002DFE4FF0E0200C4941610C4AF021117095
:101210004FF0000181614FF007010161FFF76AF8AB
:10122000FFF7C2F80423064A00210648FFF79CF99D
:10123000FFF780F9002010BD3F19010023ED00E009
:10124000E8010020190F0008000001000200010061
:10125000030001000200010004000100020001007F
:10126000030001000200010005000100020001006E
:10127000030001000200010004000100020001005F
:10128000030001000200010006000100020001004D
:10129000030001000200010004000100020001003F
:1012A000030001000200010005000100020001002E
:1012B000030001000200010004000100020001001F
:1012C000030001000200010007000100020001000C
:1012D00003000100020001000400010002000100FF
:1012E00003000100020001000500010002000100EE
:1012F00003000100020001000400010002000100DF
:1013000003000100020001000600010002000100CC
:1013100003000100020001000400010002000100BE
:1013200003000100020001000500010002000100AD
:10133000030001000200010004000100020001009E
:1013400003000100020001006813000800000020F3
:101350005C00000098110008C41300085C00002025
:1013600034130000A8110008020406080000000061
:10137000010203040102030406070809000000003B
:10138000000000000000000000000000000000005D
:10139000000000000000000000000000000000004D
:1013A000000000000000000000000000000000003D
:1013B000000000000000000000000000000000002D
:0413C0000000000029
:0400000508000131BD
:00000001FF
