:020000040800F2
:10000000602E002045010008C31400089513000865
:10001000C11400087B0A0008752D000800000000CC
:10002000000000000000000000000000CD270008D4
:100030003110000800000000B70100088329000803
:100040005F0100085F0100085F0100085F01000810
:100050005F0100085F0100085F0100085F01000800
:100060005F0100085F0100085F0100085F010008F0
:100070005F0100085F0100085F0100085F010008E0
:100080005F0100085F0100085F0100085F010008D0
:100090005F0100085F0100085F0100085F010008C0
:1000A0005F0100085F0100085F0100085F010008B0
:1000B0005F0100085F0100085F0100085F010008A0
:1000C0005F0100085F0100085F0100085F01000890
:1000D0005F010008792A0008792B0008B52B000879
:1000E0005F0100085F0100085F0100085F01000870
:1000F0005F0100085F0100085F0100085F01000860
:100100005F0100085F0100085F0100085F0100084F
:100110005F0100085F0100085F0100085F0100083F
:100120005F0100085F0100085F0100085F0100082F
:10013000DFF80CD000F02EFC00480047953700088F
:10014000602E00200648804706480047FEE7FEE78D
:10015000FEE7FEE7FEE7FEE7FEE7FEE7FEE7FEE777
:100160009529000831010008EFF3108072B670473E
:1001700080F310887047204C204D25604FF000041C
:1001800084F309881E4C4FF0010525701D4C4FF07B
:100190008055256062B6FEE730B41A4C4FF08055AA
:1001A000256030BC704730B4164C4FF08055256048
:1001B00030BC704700BF72B6EFF3098028B1203819
:1001C00080E8F00F10490968086000B50F488047C3
:1001D0005DF804EB0E480F490A7802700A480E4990
:1001E0000A680260106890E8F00F203080F30988F8
:1001F0004EF0040E62B6704720ED00E00000FFFFF5
:100200008300002004ED00E09C000020411E000857
:100210008000002081000020A400002040EA0103AB
:100220009B0703D009E008C9121F08C0042AFAD2AC
:1002300003E011F8013B00F8013B521EF9D2704770
:10024000D2B201E000F8012B491EFBD27047002218
:10025000F6E710B513460A4604461946FFF7F0FFC5
:10026000204610BD10B5044604E00B7800F8013BB1
:1002700003B1491C521EF8D2204610BD421C10F892
:10028000011B0029FBD1801A7047034611F8012B8E
:1002900000F8012B002AF9D11846704770B50646C0
:1002A00002F0E6FD046805460A220021304600F00F
:1002B000ABF92C6070BD2DE9FE4F804681EA03004A
:1002C000C00F0C46009021F0004123F00045B8EB30
:1002D0000200A94105D24046214690461C460B46E5
:1002E000024623F00040104304D14046214603B0AB
:1002F000BDE8F08F270DC7F30A00C3F30A5102903F
:10030000401A0190402866DAC3F3130040F4801BC2
:100310000098924620B10023D2EB030A63EB0B0B4B
:1003200001985946C0F14002504600F03CF906469B
:100330000D4650465946019A00F054F910EB08005A
:100340006141002487EA115284EAE7731A433BD0E3
:10035000009A3AB3019A012A4FEA075210DC001BB7
:1003600061EB02014FF0004202EA0752CDE9004280
:10037000001C41F5801132462B4600F0C0F9B6E76B
:10038000001B61EB0201001C41F5801300185B416A
:100390002018A2F5001747EB030140EAD570B61903
:1003A0006D4111E06D084FEA360645EAC0754FEA27
:1003B0000752001B61EB0201001C41F58011490846
:1003C0004FEA30000019514132462B4603B0BDE8D8
:1003D000F04F00F087B90098012240000023D0EBD5
:1003E000020263EBE073009821464FEAE074B8EB39
:1003F000000061EB0401E9E783F000435BE781F073
:10040000004158E770B521F0004303430CD0C1F31D
:100410000A550024D5EB040564EB0403D617AD1A86
:10042000B34102DB0020014670BD201841EB0251B0
:1004300070BD0EB5C10F80EAE0700844CA07002104
:1004400040F233438DE80E000A460B4600F057F9A0
:1004500003B000BD70B5C1F30A5201F0004500249D
:10046000C1F3130140F2FF3341F480119A4201DAE3
:10047000002070BD40F233439A42A2F2334203DCC3
:10048000524200F09FF800E090402C43F1D04042EF
:1004900070BD00F0004230F000400AD0C10D01F5FF
:1004A0006071C0F3160042EA0151C20840071143CF
:1004B000704700200146704730B5002904DB4FF03B
:1004C0000044404264EB0101002B04DB4FF0004488
:1004D000524264EB0303994208BF904230BD0000D2
:1004E00001F0004330B421F0004150EA010206D08F
:1004F0000A0DA2F56072C1F31301002A02DC30BCC0
:1005000000207047440F44EAC104C100E01830BC29
:1005100000EBC25000F0B0B830B50B4601460020E9
:100520002022012409E021FA02F59D4205D303FAB5
:1005300002F5491B04FA02F52844151EA2F1010236
:10054000F1DC30BD2DE9F05F0546002092469B4668
:1005500088460646814640241BE0284641464746D9
:10056000224600F02FF853465A46C01A914110D344
:1005700011461846224600F016F82D1A67EB0108BE
:100580004F4622460120002100F00DF817EB00092C
:100590004E41201EA4F10104DFDC484631462A46C4
:1005A0004346BDE8F09F202A04DB203A00FA02F11E
:1005B000002070479140C2F1200320FA03F3194351
:1005C00090407047202A04DB203A21FA02F00021F3
:1005D000704721FA02F3D040C2F120029140084353
:1005E00019467047202A06DBCB17203A41FA02F061
:1005F00043EAE07306E041FA02F3D040C2F1200280
:1006000091400843194670472DE9F04791460F463F
:1006100080460446002614F8015B2DB100F0CCF9A9
:100620000068405DC007F6D12B2D02D02D2D18D0CB
:10063000641E4A463946204600F0C2F927B139689F
:10064000A14201D1C7F8008071054FF002040BD51B
:100650004042002803DD02F00BFC0460A007BDE867
:10066000F08746F48066E4E70028F8DA02F000FC40
:1006700004606FF00040F2E70029A8BF7047401CFB
:10068000490008BF20F00100704710B4B0FA80FCA8
:1006900000FA0CF050EA010404BF10BC704749B1E5
:1006A000CCF1200421FA04F411FA0CF118BF012155
:1006B00021430843A3EB0C01CB1D0106000A002BCC
:1006C000BEBF002010BC704700EBC350104400298F
:1006D000A4BF10BC7047401C490008BF20F00100B7
:1006E00010BC704710B5002B08DA401C41F1000126
:1006F00092185B411A4301D120F0010010BD2DE991
:10070000F04D92469B4611B1B1FA81F202E0B0FA87
:1007100080F220329046FFF746FF04460F4640EA3B
:100720000A0041EA0B0153465A46084303D12046CA
:100730003946BDE8F08D114653EA010015D0C8F1E5
:1007400040025046FFF73EFF05460E4650465946CA
:100750004246FFF728FF084301D0012000E00020B7
:10076000054346EAE0762C4337430A984FEA445360
:10077000A0EB08004FEAD4240A304FF0000244EA0C
:1007800047544FEAD72502D500200146D1E701059D
:1007900010196941DDE9084500196941BDE8F04DCE
:1007A000A0E72DE9FE4F81EA030404F0004421F0A4
:1007B000004100944FF0000B23F0004350EA010485
:1007C00002D052EA030404D10020014603B0BDE880
:1007D000F08FC3F30A54C1F30A552C44A4F2F33446
:1007E0000194A0FB0254C1F3130141F48011C3F33F
:1007F000130343F4801301FB024400FB034E840AFD
:10080000970A44EA815447EA8357A4FB0768029594
:100810008D0A05FB07854FEA932C04FB0C54270532
:10082000029D4FEA065847EA1637B5EB08056EEB0E
:10083000070C870E920E47EA811742EA8312A7FB44
:100840000201B6EB0B0164EB00042B0D43EA0C3301
:100850005E1844EB1C50DA465146E7FB0201C5F333
:1008600013044FEA0B3343EA14534FEA0432019C5A
:1008700043EA0603A4F10C040294009CCDE900B401
:10088000FFF73DFFA2E72DE9F04D81EA030404F0F4
:10089000004B21F0004514464FF0000A23F00041C0
:1008A00050EA050220D054EA01021DD0C5F30A57D0
:1008B0000246C5F31303C1F31300C1F30A5640F413
:1008C000801543F48013A7EB0608101BD64608F2E8
:1008D000FD3873EB050002D308F1010801E092181E
:1008E0005B41B8F1000F03DA00200146BDE8F08D4E
:1008F00000204FF48011064684460EE0171B73EB70
:10090000050705D3121B63EB050306434CEA010CF4
:1009100049084FEA300092185B4150EA0107EDD1D7
:1009200052EA030012D082EA040083EA0501084378
:1009300003D100224FF0004308E0101BAB4102D26C
:100940000122002302E06FF0010253101AEB0600AF
:100950004CEB085110EB0A0041EB0B01BDE8F04DE8
:10096000FFF7C0BEC1F30A52C1F3130140F2FF33D7
:1009700041F480119A4202DA00200146704740F2A9
:1009800033439A42A2F2334202DC5242FFF71ABECC
:10099000FFF709BE064C074D06E0E06840F0010392
:1009A00094E8070098471034AC42F6D3FFF7C4FB35
:1009B000143B0008343B000800487047AC3A00087C
:1009C0002DE9F05F82460078002715468B460AF134
:1009D0000104B946302801D09DB113E014F8010B91
:1009E0000127782803D0582801D045B10AE00DB17D
:1009F000102D07D10027102514F8010B02E008255F
:100A000000E00A250026B0460EE005FB080005FBC5
:100A100006F1012701EB10461FFA80F8B6F5803F7A
:100A200000D3B94614F8010B294600F018F8002845
:100A3000EBDABBF1000F05D00FB1641E00E05446A5
:100A4000CBF80040B9F1000F06D002F011FA0221F4
:100A50000160C81EBDE8F09F48EA0640FAE73A2860
:100A600000D2303820F02002412A01D3A2F1370011
:100A7000884201D34FF0FF307047FEE738B5234C72
:100A8000002523A0A56002F0CFF9206901F0B2FE95
:100A9000002232231146104601F008FA606901F085
:100AA000A9FE002232231146104601F0FFF9A06989
:100AB00001F0A0FE002232231146104601F0F6F9A3
:100AC000E06901F097FE002232231146104601F042
:100AD000EDF90095D4E90D0118A319A200F0B0F8C2
:100AE0000C280CD0184919A002F09EF91AA002F0A7
:100AF0009BF9A570BDE838401FA002F095B927A06A
:100B000002F092F90120A070F4E700000800002034
:100B10002A2A2A2A2A2A2A2A2A2A2A2A2A2A4154F4
:100B20002B4350494E3F2A2A2A2A2A2A2A2A2A2A8D
:100B30002A2A2A2A2A2A2A0D0A0000004F4B0000DE
:100B400041542B4350494E00C81A00200D0A20255D
:100B500073200D0A000000000D0A2053494D206348
:100B6000617264207265616479206E6F74207265B1
:100B700061647921000000000D0A2A2A2A2A2A2A03
:100B80002A2A2A2A2A2A2A2A2A2A2A2A2A2A2A2AC5
:100B90002A2A2A2A2A2A2A2A2A0D0A000D0A534911
:100BA0004D2063617264207265616479200D0A00D2
:100BB0002DE9F04780468946144600261046FFF787
:100BC0005DFB104A8246571E0021786A00F0FCFD4A
:100BD0000025200010D0024653464946404602F008
:100BE000B1FD060008D1002264231146104601F031
:100BF0005DF96D1C0A2DECDB786A00F0C7FE30460B
:100C0000BDE8F0870900002070B50B4D00246A1C78
:100C10002C702146686A00F0D7FD084900204FF487
:100C200096720C54401C80B29042FAD3686ABDE8B8
:100C3000704000F0ABBE000008000020C81A002081
:100C40002DE9FF5F93460027314A8146501E8A46B0
:100C50003C463E463D463946406A00F0B5FDB84642
:100C60005FEA0B0008D0FFF709FB034651464846F0
:100C70005A4602F067FD0746039840B1FFF7FEFAB7
:100C8000034651464846039A02F05CFD04460E981E
:100C900040B1FFF7F3FA0346514648460E9A02F078
:100CA00051FD064617B9BBF1000F05D10CB90398E9
:100CB00010B966B90E9850B100226423114610464F
:100CC00001F0F4F808F10108B8F1140FC8DB44EAA8
:100CD000060050EA070105D047B128B1A4B18EB192
:100CE0007B2506E0002504E0012502E00CB106B1F9
:100CF00017250748401E406A00F048FE04B0284609
:100D0000BDE8F09F0C25F4E7002EF2D00D25F0E7AA
:100D10000900002010B5002000F0CCFC014908605B
:100D200010BD00005C000020FFF7F4BF0EB51AA054
:100D300000E021A002F078F800F096F80028F8D141
:100D400021A002F071F8254C254D00BF00F0AAFE4D
:100D5000FFF70AFA606000F059F82060FFF799FB8E
:100D600000222B46FFF748FBFFF774FB02461DA14C
:100D7000684602F069F86068FFF7FAF900F0A8FE2B
:100D8000694619A002F050F800230A2219461846B5
:100D900001F08CF8DAE700000D0A2057696C6C69E5
:100DA000616D20445331384232302050726F636598
:100DB0007373200D0A0000000D0A204E6F2064732B
:100DC00031386232300D0A000D0A20647331386206
:100DD000323020657869740D0A0000006000002040
:100DE0000000E03F2564000057696C6C69616D206C
:100DF00063757272656E742074656D70657261746E
:100E00007572652025730D0A0000000010B500F012
:100E1000CBF800F077F8CC2000F0DEF8442000F0AA
:100E2000DBF800F0C1F800F06DF8CC2000F0D4F849
:100E3000BE2000F0D1F800F091F8044600F08EF8E2
:100E40004FEA002001B251EA04006FF0030401D51B
:100E5000C043401CFFF7EDFA2246FFF7D3FABDE886
:100E60001040FFF73DBB000038B500F01BFE00F05E
:100E7000E7FBFFF779F9124C01216060042001F0D3
:100E80009DFA1020ADF800008DF8030003200D4DF1
:100E90008DF802006946284600F0E8F8102128463F
:100EA00000F03CF900F080F800F02CF8054660688E
:100EB000FFF75EF900F0D0FB00F00AFE284638BDCF
:100EC000600000200008014008B51020ADF80000C7
:100ED00048208DF803006946014800F0C7F808BDB6
:100EE0000008014008B51020ADF800008DF803009F
:100EF00003208DF802006946014800F0B7F808BDEC
:100F00000008014070B50024FFF7DEFF124D04E039
:100F1000641CE4B2012000F08CF81021284600F097
:100F2000F4F810B1642CF3D30FE0642C0DD200243C
:100F300004E0641CE4B2012000F07BF81021284694
:100F400000F0E3F818B1F02C04D3012070BDF02CB0
:100F5000EFD3FAE7002070BD0008014070B500250E
:100F60002C46104EFFF7BEFF1021304600F0D4F89B
:100F70000A2000F05EF8FFF7A7FF1021304600F0CE
:100F8000C4F801280CD000222D2000F052F8A24015
:100F90002A43641CE4B2D5B2082CE3D3284670BDC2
:100FA0000122F1E70008014010B5FFF79BFF094C53
:100FB0001021204600F0B0F840F2EE2000F039F8A1
:100FC0001021204600F0AAF8BDE810400F2000F0E4
:100FD00030B800000008014070B50546FFF782FFF9
:100FE000124E002415F0010F4FEA55054FF0100185
:100FF00030460AD000F090F8082000F01AF81021CE
:10100000304600F08BF83A2009E000F085F84620E1
:1010100000F00FF81021304600F080F8022000F0B8
:1010200008F8641CE4B2082CDCD370BD0008014051
:10103000704705E00021491CC9B20629FBD9401EB2
:101040000028F7D17047000008B50121102001F0F9
:10105000B5F948208DF803001420ADF8000069466A
:10106000014800F003F808BD00100140F0B5CA784F
:10107000002502F00F03D20601D58A7813430C78BD
:101080004FF00F0E0122ECB1D0F800400F8802FAA9
:1010900005F63740B74211D14FEA850C0EFA0CF72E
:1010A00024EA070703FA0CF43C43CF78282F02D038
:1010B000482F02D002E0466100E006616D1C082D59
:1010C000E4D304600C88FF2C1ED944685FF000064E
:1010D00006F1080702FA07F50F882F40AF420FD13B
:1010E0004FEA860C0EFA0CF7BC4303FA0CF73C43AC
:1010F000CF78282F00D14561CF78482F00D10561E6
:10110000761C082EE4D34460F0BD024600209268AD
:101110000A4200D001207047416170470161704769
:101120002DE9F8430026054683B232463146304663
:1011300000F0BCFE2D4C206901F05CFB0022ABB23C
:101140001146104600F0B2FE606901F053FB002228
:10115000ABB21146104600F0A9FEA06901F04AFBAF
:101160000022ABB21146104600F0A0FE002500950B
:10117000D4E90D011EA31FA2FFF762FD0C2805D0C4
:101180001FA001F051FEA570BDE8F88322A001F078
:101190004BFE4FF00308761CE06801F02BFB0023A8
:1011A00001221946184600F081FE0095D4E90D0190
:1011B0001EA321A2FFF744FD07460095D4E90D01C7
:1011C00020A31DA2FFF73CFD0C2F09D00C2807D04F
:1011D00021A001F029FE84F80280052EDBDBD3E795
:1011E00023A001F021FE0420A070CDE7080000201C
:1011F0004F4B000041542B434950484541440000A7
:1012000041542B43495048454144206E6F7420722D
:1012100065616479210D0A0041542B4349504845CA
:101220004144207265616479200D0A00434F4E4E9F
:10123000454354204F4B000041542B4349505354D5
:1012400041525400414C524541445920434F4E4E67
:10125000454354454400000047505253204E4F54DC
:1012600020434F4E4E454354544544210D0A00003F
:101270004750525320434F4E4E454354204F4B202E
:101280000D0A00002DE9F843002688460746322360
:1012900032463146304600F009FE27A001F0AAFA96
:1012A000002232231146104600F000FE2A4C002591
:1012B0000095D4E90D0124A324A2FFF7C1FC4FF04F
:1012C00004090C2802D084F8029028E041463846F0
:1012D00001F09AFA1A2001F07BFA00224FF4FA7317
:1012E0001146104600F0E2FD1CA001F09DFD05E056
:1012F00017F8011B20A001F097FD761C4645F7DB8F
:101300001CA001F091FD0095D4E90D0100231BA262
:10131000FFF796FC01280BD01AA001F085FDA0680C
:10132000401CA060022801D1A570A560BDE8F8832B
:10133000A56084F80290F9E741542B434950534586
:101340004E440D0A000000003E00000041542B43B3
:10135000495053454E440000080000200D0A5365D3
:101360006E64206D65737361676520746F205365CB
:10137000727665720D0A00002564200053454E44C4
:10138000204F4B000D0A2053656E64204661756C3A
:10139000740D0A00FEE700002DE9F84301211C202E
:1013A00001F00CF810208DF8030003208DF80200E6
:1013B000DFF850904FF48054ADF80040694648463D
:1013C000FFF754FE104F4FF4A065ADF8005069468A
:1013D0003846FFF74BFEDFF834802611ADF8006089
:1013E00069464046FFF742FE21464846FFF794FE15
:1013F00029463846FFF790FE31464046FFF78CFEFF
:10140000BDE8F88300100140000C014000080140D5
:101410000025FFF7C1FFFFF717FEDFF89C80274C80
:101420004FF4FA7B4FF4807A4FF4805631462046D1
:10143000FFF774FE574651464046FFF76FFE002205
:10144000D9465B461146104600F030FD3146204635
:10145000FFF762FE39464046FFF75EFE00224B462C
:101460001146104600F022FDBA466D1C4FF47A7901
:1014700047464D45DADD04212046FFF746FE0028A9
:101480005146384602D0FFF747FE01E0FFF746FE1F
:1014900010212046FFF739FE00283146204602D0B1
:1014A000FFF73AFE01E0FFF739FE00226423114600
:1014B000104600F0FBFCDCE7000C0140001001408E
:1014C000FEE77047F0B50F21C478027801234FF092
:1014D000E026DCB1124C2468457804F4E064C4F5DD
:1014E000E064240AC4F10407E1408478BD400C4064
:1014F0002C4321010B4C1155007800F01F018B404B
:10150000400906EB8000C0F80031F0BD02F01F007A
:101510008340500906EB8000C0F88031F0BD000028
:101520000CED00E000E400E070B586B000F086F855
:10153000344D00242C63AC70EC702C72EC71EC60B8
:10154000EC61AC616C616C70AC71204605F13401EA
:101550000C54401CC0B20828FAD32C716C71AC62D8
:101560002C6200F0B3FDC821274800F0E7FD264AB1
:101570000020411C00EB80008BB202EB800003EBEB
:10158000830302EB83030470436088B20928F0D31D
:1015900000EB800002EB8000047044602A6100F0E0
:1015A00071FD00F0D5FD80261848CDE901064FF603
:1015B000FF70009003253F23154A00211548CDE90F
:1015C000034500F001FB05AA13A13F2000F04CFBEE
:1015D0000D480E4AC830CDE901064FF6FE70009066
:1015E0003E23121F00211048CDE9034500F0ECFA1C
:1015F00005AA0EA13E2000F037FB06B0BDE8704002
:1016000000F01DB87C000020DC1F0020A422002078
:10161000A0240020E122000875432F4F532D494993
:101620002049646C65000000FD22000875432F4FBF
:10163000532D49492053746174000000704770476E
:101640000449C879012804D18878FF2801D2401CB8
:10165000887070477C00002070B5144CE079012838
:1016600022D1FEF781FD0546A07820B1401E10F082
:10167000FF00A07013D1E07888B900F0ADFD0C48F0
:10168000617950F82100A0622279914207D0816BE4
:10169000491C8163E068401CE060FEF784FD284639
:1016A000BDE87040FEF764BD70BD00007C00002006
:1016B000A424002070B505460C48007808B100202D
:1016C00070BDFEF751FD0A490C680CB162680A60F2
:1016D000FEF74EFD3CB10120207000202081204605
:1016E000656000F0C5FC204670BD00007E00002053
:1016F0008C00002070B5044600780D46012801D00A
:10170000012070BDFEF730FD0646A07A58B10023D7
:1017100002222946204600F041FC3046FEF728FD13
:1017200000F036FD0AE0606820B13046FEF720FD8B
:10173000142070BD30466560FEF71AFD002070BDB4
:101740002DE9F04106461D480D46007810B11020E5
:1017500008700BE0FEF708FD0146194850F82620F6
:101760003AB10846FEF704FD282028700020BDE8A5
:10177000F081012240F82620124A4FF00008042789
:10178000146894B1606810600846FEF7F1FCFF2011
:1017900040EA06202770208146462046C4F804808F
:1017A00000F066FC2E702046E1E740F826804446B3
:1017B0000846FEF7DDFC2F70F5E700007E000020F4
:1017C000A42400208C0000202DE9F74F0546007866
:1017D00014464FF00108042803D082F80080BDE8C9
:1017E000FE8F6448007808B1022003E06248007868
:1017F00010B10D201070F2E7FEF7B6FC29890646FD
:10180000080ACA43DFF8749112F0FF0F1CD06B680E
:10181000C9B293F8322082426DD9D9F8002092F8EB
:1018200032208A4267D293F83420DFF854A193F82B
:101830003570DFF850B11AF80210394225D0B9439B
:101840000AF8021018D01EE001F47F412981D9F86E
:10185000002092F83230194329816A6092F83210E0
:101860008142304603D8FEF783FC782002E0FEF781
:101870007FFC00202070B2E793F836709BF80020C0
:10188000BA438BF8002001270FE0D96961B101EB61
:10189000020C9CF80B20BA438CF80B2004D18A7AF6
:1018A00093F83670BA438A720027C10803F8320FE2
:1018B00000F0070C08FA01F2997083F801C0D2B267
:1018C00008FA0CF81A7108F0FF0C83F803C0323BD9
:1018D000012F32D0D96959B18F7A17438F7293F89B
:1018E00034200B3193F835C0575C47EA0C07575446
:1018F000254941F82030D9F8000000272C30017923
:1019000041F010010171477101990160284600F012
:101910008BFB3046FEF72CFC00F03AFCFEF724FC73
:101920000646D9F8000090F8311099B1022913D079
:10193000294600F069FB0A200FE09BF8008042EA8C
:1019400008028BF800201AF8017047EA0C070AF821
:101950000170CDE7277001E00E202070D9F800005B
:101960001C300775477507603046BDE8FE4FFEF72F
:10197000FFBB00007E0000207F0000209C000020B4
:10198000B000002082000020A42400202DE9F041B6
:1019900004462748007810B10520BDE8F081207882
:1019A000042801D00120F8E7FEF7DEFB0646208977
:1019B0006268050AC1B21F480068824204D03046FE
:1019C000FEF7D6FB6420E8E790F83220AA4201D166
:1019D00000F034F8184F012047F82500A07AE0B154
:1019E000002310221946204600F0D8FA218901F47C
:1019F0007F410143218157F82010A84261603046A1
:101A000005D8FEF7B5FB00F0C3FB7820C5E7FEF76D
:101A1000AFFB00F0BDFB0020BFE7208940F0FF00D6
:101A20002081002060603046FEF7A2FBF3E7000053
:101A30007E0000209C000020A4240020F0B590F837
:101A40003430144D90F83540EA5CA243124CEA540D
:101A500004D190F8363022789A4322700F4A00F869
:101A6000321FC1F3C206117001F00707012386700F
:101A700003FA06F247700271BB40C3702778323810
:101A80003A432270AA5D1A43AA55054A42F821003A
:101A9000F0BD0000B0000020820000208000002087
:101AA000A424002010B5094CE07901280CD1FEF7E0
:101AB0005BFBA17821B9E178FF2901D2491CE170D3
:101AC000BDE81040FEF754BB10BD00007C000020B4
:101AD00010B50D4CE079012814D1FEF745FBE178F3
:101AE00031B1491E11F0FF01E17001D1A17819B1A6
:101AF000BDE81040FEF73CBBFEF73AFBBDE81040E6
:101B000000F046BB10BD00007C00002010B5094C61
:101B1000E07900280CD100F05FFB60790649207164
:101B200051F82000A0622062BDE81040FEF723BB00
:101B300010BD00007C000020A4240020704700009D
:101B40002DE9FE431C4615460F468046FEF70CFB6A
:101B50001A49097821B1FEF70BFB3C20BDE8FE8352
:101B6000174E56F8241019B1FEF702FB2820F5E7AE
:101B7000012146F82410FEF7FBFA00232A463946D5
:101B8000404600F0D9F800250146009501952B4606
:101B90002A462046029500F02FFB070007D0FEF7EB
:101BA000E3FA46F82450FEF7E3FA3846D6E705484C
:101BB00000780128F9D100F0EBFAF6E77E0000206A
:101BC000A4240020830000202DE9FF4F83B01C4691
:101BD000DDE91386DDE9119792468B46FEF7C4FADC
:101BE0001D49097829B1FEF7C3FA3C2007B0BDE8CA
:101BF000F08F1A4D55F8241019B1FEF7B9FA2820C4
:101C0000F4E7012145F82410FEF7B2FA32463946CE
:101C1000484600F0BBFB334652465946039800F055
:101C20008BF80097CDE9018601464A462046109B75
:101C300000F0E2FA060008D0FEF796FA002145F817
:101C40002410FEF795FA3046D0E7054800780128C1
:101C5000F9D100F09DFAF6E77E000020A4240020D0
:101C6000830000207047704770B5054611480E4646
:101C70001446007810B11220107070BDFEF774FA8F
:101C80000146FF2D03D10C48006890F832500B48F4
:101C900050F82500432540B1012806D0C664084607
:101CA000FEF766FA0020207070BD0846FEF760FA65
:101CB000257070BD7E0000209C000020A424002020
:101CC000704700002DE9F0410446002008600D46F1
:101CD0004860FEF749FA0146FF2C03D1144800681A
:101CE00090F83240134850F8240058B1012809D028
:101CF000027CD2070CD0D0E9027600240846FEF719
:101D000037FA0BE00846FEF733FA4320BDE8F081CE
:101D10000846FEF72DFA4520F8E7641C01CF00289D
:101D2000FBD0A0002860301B800068600020EDE739
:101D30009C000020A42400204FF080731360131F28
:101D40001860A2F108006FF001030360001F4FF05C
:101D500012330360001F4FF003330360001F4FF086
:101D600002330360001F5B100360001F0160001F4F
:101D70004FF011310160001F19010160001F4FF089
:101D800009310160001FD9000160001F4FF00731C9
:101D90000160001F4FF006310160001F4FF0053158
:101DA0000160980042F83C0D1046704770B504463B
:101DB000FEF7DAF903461E48FF2C006805D090F8BC
:101DC0003200A04204D1012503E090F83240FAE746
:101DD0000025184850F8240058B101280ED090F87A
:101DE0003420154C90F83560A15CB143A1540AD061
:101DF0000FE01846FEF7BCF9482070BD1846FEF704
:101E0000B7F9432070BD0D4990F836400A78A243D7
:101E10000A7010F8301F41F0080101701846FEF7F3
:101E2000A7F9012D01D100F0B3F9002070BD000029
:101E30009C000020A4240020B0000020820000208C
:101E40007047000070B5044613480078002821D17F
:101E50001248007800281DD1002C1BD0FEF784F911
:101E600003460F480F4D016891F8340091F8356032
:101E70002A5CB2432A5405D10B4891F836500278B7
:101E8000AA4302701846CC62FEF772F9BDE87040B2
:101E900000F07EB970BD00007E0000207F000020B1
:101EA0009C000020B00000208200002010B5104CE3
:101EB00024780CB1552010BD0E4C24780CB1322082
:101EC00010BD4FF47A746343B3FBF4F34FF46164D1
:101ED0006043C1EB011100EB8100104400EB4001B5
:101EE000C1EBC01003EBC000FFF7ACFF002010BD3A
:101EF0007E0000207F0000202DE9F04100F04CF82A
:101F0000FEF732F9234D296B491C2963FEF730F99E
:101F1000E87901283BD1687A0126002720B1012801
:101F200035D0022802D06F72EC6A2CE06E72FBE7AB
:101F3000FEF71AF9E16A19B3491EE16220D194F85B
:101F4000301011F0370F06D001F0C80184F83010BE
:101F500084F8316001E084F8317094F8301009079A
:101F60000ED494F83610AA791143A971094994F84E
:101F70003420343194F835C08B5C43EA0C038B5425
:101F80006469FEF7F5F894F832003F28D0D1BDE837
:101F9000F08100007C00002070470000F0B50E4684
:101FA0000146847A15484FF00007045D01EB0405F3
:101FB000ED7A405D00EBC400C5B2114850F8250031
:101FC00000F12000C7600660067C26EA020606745F
:101FD0004374A0F1200032070BD40A4A90F836303F
:101FE000967933439371343290F83560135D3343FF
:101FF000135500F009F82846F0BD00002A39000802
:10200000A42400207C00002010B590F8342090F823
:1020100035408B18DA7AA243DA7204D18A7A90F8C2
:10202000360082438A7210BD30B5104900F10B02B0
:102030000B6A43F81C0F1C7E5B7EA55C1D43A554F8
:102040000A6A837A3432947823438372107801F1D8
:1020500034045578235C343AAB43235404D192F8CA
:10206000362088799043887130BD00007C000020C4
:102070000022827211464318491CC9B2DA7208293B
:10208000F9D3704710B550210D4800F057F80020E3
:102090000B4A0346411C02EB00108CB202EB041405
:1020A0000370446007A4C46088B20428F2D302EB32
:1020B000001004A103704360C1600348026010BDBA
:1020C000942900203F000000B800002000B54FF424
:1020D0007C71164800F032F84FF48071144800F01B
:1020E0002DF8124A0020411C0B46C9B2C0EBC000BB
:1020F00000EB4000C1EBC10102EB800001EB4101AC
:1021000002EB810141610BA1C164D8B20B28EAD373
:10211000C0EBC00000EB400002EB800005A30021F3
:10212000C364416104484262C16200BDA42500202D
:10213000A42400203F0000007C000020002203E0D7
:10214000491E00F8012B89B20029F9D1704700001F
:1021500010B578210C48FFF7F1FF0B4A0020411C15
:102160008BB200EB400003EB430302EBC30342F8E6
:10217000303088B20428F2D300EB4000002142F84E
:1021800030100248026010BDE4290020BC0000208D
:1021900070B5FDF7E9FF0E4C0546A07898B9E078D8
:1021A00088B900F019F80B49607951F82010A16244
:1021B0002279904207D0886B401C8863E068401CFD
:1021C000E060FDF7E9FF2846BDE87040FDF7D0BFAD
:1021D0007C000020A42400200649054A01F13403B4
:1021E0008879105C1B5CD25C02EBC00048717047C0
:1021F0002A3900087C0000202DE9F05F9846DDE9CF
:102200000ABA91460D460746FDF7AEFF314E746A95
:10221000002C5BD0616918347162FDF7A9FF44F8A6
:10222000185CA776002525766576656144F80CBCB8
:1022300044E905A90C9824F8080C24F8068CE577E5
:10224000FA08227707F00701012000FA02F2E1768E
:10225000A277884060776560E560A5602562A56229
:1022600065621DA0E562C4E90C50183C5FF00000F7
:1022700004EB8001401C0D6510F0FF00F8D02046F3
:10228000FFF75CFC2046FFF7EDFCFDF76DFF014614
:10229000124840F82740F06AC4E9050500B184619E
:1022A000F4623434B279A0781043B07109482278CE
:1022B00034306478835C23438354307A401C30721A
:1022C0000846FDF755FF0020BDE8F09FFDF750FFE1
:1022D0004220F9E77C0000203F000000A4240020F9
:1022E000054C00BFFDF740FFE169491CE161FDF7C6
:1022F0003FFFFFF7B8FCF5E77C000020144C02E03C
:10230000C820FFF79FFD60780028F9D0642160693C
:102310000025B0FBF1F0606118B92570FF20FFF7D0
:1023200045FDFDF721FFE169C4E90615FDF720FF32
:10233000D4E90510B0FBF1F0C0F164002070FFF7A4
:10234000BFFC00F007F86420FFF77CFDE9E7000020
:102350007C0000207CB50C4D002469462046FFF728
:10236000B1FC58B955F8240040B1012806D0D0E995
:10237000021201EB8201416401998164641CE4B2A0
:102380003F2CEAD97CBD0000A4240020D30707D04D
:10239000920705D50022002902D004C0491EFAE7A1
:1023A00070470000044A0029D16901D0014300E0D0
:1023B0008143D1617047000000100240044A0029A7
:1023C000916901D0014300E08143916170470000B1
:1023D0000010024010B500F029F84FF48034204678
:1023E00000F0B8F800F0FEF80028FBD0002000F064
:1023F000A7F8002000F0D2F84FF4806000F0C4F895
:102400004FF4E011204600F0D9F8012000F0D0F898
:10241000392000F075F80128FAD1022000F0D8F830
:1024200000F086F80828FBD110BD00000C480168B8
:1024300041F00101016041680A4A114041600168B0
:10244000094A11400160016821F48021016041685E
:1024500021F4FE0141604FF41F01816070470000CC
:10246000001002400000FFF8FFFFF6FE30B52049E3
:102470004A6812F00C031F4A03D0042B01D0082B2A
:1024800022D002604A680F231B4C03EA1212A35C9D
:102490000268DA4042604B68072505EA1323E35CD3
:1024A00022FA03F383604B6805EAD323E35C22FA44
:1024B00003F2C2604968032303EA9131231F595C88
:1024C000B2FBF1F1016130BD4A684B6802F4701251
:1024D0004FF0020413F4803F04EB924202D04B68A9
:1024E0009B0301D5054B00E0024B5A43C9E70000AE
:1024F0000010024000127A006C00002000093D002C
:102500000246002053090949012B0BD0022B0BD0A6
:10251000D1F8241002F01F02012393400B4200D097
:10252000012070470968F5E7096AF3E700100240E7
:102530000248406800F00C007047000000100240A4
:10254000034A516821F0F0010143516070470000D7
:10255000001002400B490A6822F480320A600A68BF
:1025600022F480220A60B0F5803F07D0B0F5802FBA
:1025700003D1086840F4A02008607047086840F460
:102580008030F9E700100240034A516821F4E0610D
:1025900001435160704700000010024003494A683F
:1025A00022F4605242EAC0004860704700100240C6
:1025B000014908667047000000004242034A536820
:1025C000084323F47C131843506070470010024006
:1025D000034A516821F00301014351607047000034
:1025E0000010024018B500204FF4A0640090312084
:1025F000FFF786FF0099491C0091A14201D00028F5
:10260000F5D03120FFF77CFF002800D0012018BD55
:1026100008B5002635463A4901200096FFF790F8A4
:10262000374C641E6062607810B936A000F0FCFB85
:1026300033483A49333000F1150301604FF4967185
:102640004160A0F1080200F10801A670344801F0D1
:10265000EFF80146A06233A000F0E6FB304E04E044
:10266000715D37A000F0E0FB6D1CA06A8542F7DBCE
:1026700000230A2232E000BFFEF700FA26E03220F3
:10268000FEF74EFD22E0206A401C20622DA000F0E3
:10269000CBFB684600F018F905000FD034A000F01D
:1026A000C3FB002606E000BF15F8011B24A000F0C4
:1026B000BBFB761C00988642F6DB02E037A000F0F8
:1026C000B3FB1748A16AFEF7DDFD01E0FEF79CFAB7
:1026D000A17839A000F0A8FB0023022200210846BF
:1026E000FFF7E4FBA0780628F2D2DFE800F0070647
:1026F00005060403EAE7C6E7EAE7C0E7BCE700002F
:10270000090000204F534D757465784372656174FC
:1027100065205375636573732E0D0A00C81A002077
:10272000581C00200D0A4D5154546D657373616738
:102730006553697A652069732025640D0A000000DD
:10274000256420000D0A23232323436865636B203F
:1027500072656365697665206D6573736167652071
:1027600066726F6D205365727665720D0A00000007
:102770000D0A21212121212121212121217265639D
:1027800065697665206D6573736167652066726F34
:102790006D205365727665720D0A0000212626268B
:1027A000262626264E6F2049504420696E20427509
:1027B00066660D0A0000000053494D53746174753C
:1027C000732069732025640D0A0000007047000023
:1027D00070B5074C05460146204600F0C7FA402177
:1027E000204600F027FA0028F9D0284670BD0000E6
:1027F0000038014010B5044602E0641CFFF7E8FF12
:1028000020780028F9D110BD70B505460C4604E0CB
:1028100015F8010BFFF7DCFF641E002CF8D170BD2A
:102820000CB50021264801910091026842F48032E3
:1028300002604FF4A063026802F400320092019A31
:10284000521C0192009A12B9019A9A42F3D102687D
:10285000920333D5012100911A490A6842F010020F
:102860000A600A6822F003020A600A6842F0020263
:102870000A604168416041684160416841F480619B
:102880004160416821F47C114160416841F4E811E4
:102890004160016841F08071016001688901FCD5E7
:1028A000416821F003014160416841F0020141604B
:1028B0004168C1F381010229FAD10CBD00910CBD20
:1028C00000100240002002402DE9F047002482461B
:1028D0000A2527462646DFF88090DFF8808015E03D
:1028E000D9E90D011EA2FEF763F904002DD04E4672
:1028F0001DA2D6E90D01FEF75BF9A0EB0807D6E9AA
:102900000D011AA2FEF754F9A0EB08066D1EE7D2DE
:10291000C4B11148F21B08EB0701521E4446491C82
:10292000001DFDF79FFC0C48001DFDF7B7FC02469B
:10293000A119CAF80000491C0D48FDF76FFC0C4CAA
:10294000FEF762F92046BDE8F087002264231146B5
:102950001046FFF7ABFAD9E708000020C81A00209C
:102960002B495044000000002C0000003A000000F9
:10297000F41B00200023022219461846FFF796FA9E
:10298000F8E710B5FEF75CFEFFF7B6FABDE81040B9
:10299000FEF762BE0C48016841F001010160416828
:1029A0000A4A114041600168094A1140016001680A
:1029B00021F480210160416821F4FE014160002181
:1029C0008160FFF72DBF0000001002400000FFF8FB
:1029D000FFFFF6FE10B586B0012144F20400FFF7B8
:1029E000EDFC4FF40070ADF8100018208DF81300C6
:1029F00003201F4C8DF8120004A92046FEF736FB79
:102A00002015ADF8100004208DF8130004A920460D
:102A1000FEF72CFB25208DF8140001208DF8150001
:102A200002218DF816108DF8170005A8FEF74AFD53
:102A30004FF4E13000900020ADF80400ADF806003E
:102A4000ADF80800ADF80C000C200A4CADF80A00F7
:102A50006946204600F02CF90121204600F0E0F8FC
:102A6000012240F22551204600F00AF906B010BDBF
:102A7000000801400038014070B5FEF7E1FD104D3F
:102A800040F225542146284600F0DBF898B1214653
:102A9000284600F0BFF8281D00880A4AC1B2107805
:102AA000962803D2084B1954401C00E000201070F7
:102AB000064800F05BF9BDE87040FEF7CDBD0000B0
:102AC0000038014008000020C81A002000440040DF
:102AD00070B5012186B04804FFF764FC0121042091
:102AE000FFF76CFC0424ADF8104018208DF813009B
:102AF0001F4E03258DF8125004A93046FEF7B6FA92
:102B00000820ADF810008DF8134004A93046FEF7F8
:102B1000ADFA26208DF814008DF8155002208DF89E
:102B2000160001208DF8170005A8FEF7CBFC4FF426
:102B3000E13000900020ADF80400ADF80600ADF8DB
:102B40000800ADF80C000C200A4CADF80A006946EC
:102B5000204600F0ADF80121204600F061F8012286
:102B600040F22551204600F08BF806B070BD000001
:102B7000000801400044004070B5FEF761FD0B4DB8
:102B800040F225542146284600F05BF848B1214622
:102B9000284600F03FF8281D0088C1B2044800F024
:102BA000E5F8BDE87040FEF757BD00000044004066
:102BB0000038014070B58EB00125ADF800508DF899
:102BC0003650FEF73DFD0F4E2021304600F032F822
:102BD000012813D10C4C3046257100F0C3F80B4A84
:102BE000E1786329505401D10020E070E078694613
:102BF000401CE07006480068FEF77CFDFEF72CFDE7
:102C00000EB070BD0048004000000020C40A002043
:102C10005C0000200A0A01219140C94301807047ED
:102C20000029818902D041F4005101E021F40051D2
:102C3000818170470246002012880A4200D001209C
:102C4000704730B501F01F0201240025C1F3421383
:102C500004FA02F2012B0FD0022B0FD0838A4FEA25
:102C600011210088134204FA01F400EA040001D0A3
:102C700000B10125284630BD8389F0E7038AEEE7DD
:102C800010B5C1F3421301F01F040121A140012B33
:102C900007D0022B07D01430002A026805D00A435F
:102CA00004E00C30F8E71030F6E78A43026010BD0C
:102CB00030B50446008A85B00D464CF6FF710840D9
:102CC000E98801432182A1894EF6F3100140A888CA
:102CD0002A8910436A890A431043A081A08A4FF6CB
:102CE000FF410840A9890143A1826846FFF7BEFB66
:102CF0001B48844201D1039800E00298A18909048D
:102D0000002900EBC00101EB0010296802DA4FEA4C
:102D1000410101E04FEA8101B0FBF1F06422B0FB18
:102D2000F2F14FEA01114FEA11136FF018056B43EE
:102D300000EB8300A3891D044FF0320306D503EB9B
:102D4000C000B0FBF2F000F0070005E003EB00105C
:102D5000B0FBF2F000F00F000843208105B030BD59
:102D6000003801408088C0F308007047C1F30801B3
:102D700081807047FEE7000070B50B4C01250146CD
:102D8000258084F83650201DFDF77FFA642104F178
:102D90003800FDF75CFA054884F836502146006893
:102DA000FEF7A8FC284670BD280A00205C00002021
:102DB000144C002564212570A5701348FDF747FACF
:102DC000FFF708FEFFF784FE01264FF4FA7703E0D1
:102DD0006570A6703B460EE060780028F8D1A078B8
:102DE00040B1A57025700848FFF7C6FF10B907A0CD
:102DF00000F01AF86423002211461046FFF756F837
:102E0000EAE7000000000020600A002048616E64CC
:102E10006C6520557361727431206461746520455E
:102E200072726F720A0000000FB4054B10B503A94F
:102E3000044A029800F0DEF810BC5DF814FB0000B4
:102E400071370008C00000200FB4084B10B504A96A
:102E500002AA039800F0CEF8044602A9002000F070
:102E60006CFC204610BC5DF814FB00003B370008EA
:102E700000487047C400002002E008C8121F08C1C3
:102E8000002AFAD170477047002001E001C1121FEB
:102E9000002AFBD1704700002DE9FF5FDDE9022029
:102EA000010DDDF838B0024310D10F9801244CA277
:102EB000012808D0002100980F9BC0E90021C0E93B
:102EC0000243BDE8FF9F6FEA0B01F4E7A1F2FF3177
:102ED00044F6105041430D140F9801280ED0A5EB75
:102EE0000B00401C4FF000043E4EDFF8FC90B0F1A8
:102EF000000AA04605DACAF1000717E0CBF100008E
:102F0000F0E7074612E0F80707D02246334640466E
:102F10004946FDF746FC8046894622463346104620
:102F20001946FDF73EFC04460E467F10002FEAD1FD
:102F3000DDE90201BAF1000F42464B4602DAFDF725
:102F400030FC01E0FDF79FFC04460E460022274BB3
:102F5000FDF7B2FA03D84FF0FF30014607E0002238
:102F6000234B20463146FDF7A6F9FDF7FBFC102464
:102F700009E0002C0ADB0A220023FDF7E3FA019B9B
:102F800030321A55641E50EA0102F2D1641C019AD3
:102F9000C4F1110314440F9A012A09D001220843F5
:102FA00001D15B450FDD4FF0000205F101050DE099
:102FB000084303D1A3EB0B056D1E09E000204FF081
:102FC000110B0F9088E701DA00226D1E002A83D0D2
:102FD00000980F99C0E90231C0E9004571E700008F
:102FE00030000000000024400000F03F0000F043EB
:102FF0000000E03F2DE9FF4F95B09B46894606460D
:10300000002512E2252878D10024761CF94A2746AB
:10301000012105943378203B01FA03F0104202D0DD
:103020000443761CF6E730782A2811D06FF02F037E
:103030003078A0F13002092A16D8059A44F002042B
:1030400002EB820203EB42021044761C0590EFE78C
:1030500059F8042B0592002A03DA504244F4005434
:10306000059044F00204761C30782E2816D116F80C
:10307000010F44F004042A280DD06FF02F0230789D
:10308000A0F13003092B09D807EB870302EB4303B8
:10309000C718761CF3E759F8047B761C30786C2847
:1030A0000FD006DC4C2817D068280DD06A2814D120
:1030B00004E0742810D07A280FD10DE044F40014F5
:1030C0000AE044F4801401E044F44014727882422F
:1030D00002D1761C04F58014761C307866280BD05B
:1030E00013DC582877D009DC002875D04528F6D0A5
:1030F0004628F4D047281AD19FE118E0632835D03C
:10310000642879D0652812D197E1702873D008DC43
:103110006728F1D069286FD06E280DD06F2806D1AE
:10312000B5E073282CD0752875D0782874D05A460D
:10313000179990476D1C76E1C4F30250022809D01C
:1031400003280DD0D9F8001004280DD00D6009F126
:10315000040968E1D9F80010EA17C1E90052F6E75E
:10316000D9F800100D80F2E70D70F0E719F8041B94
:103170008DF8001000208DF80100EA46012003E0E0
:1031800059F804AB4FF0FF3061074FF0000102D453
:103190000DE008F101018846B9420FDA8045F8DBFD
:1031A0001AF808100029F4D108E008F10101884656
:1031B0008142FADB1AF808100029F6D105985B461F
:1031C000A0EB080721463846179A00F09EFA2844DB
:1031D00000EB080507E04DE02BE10DE01AF8010BCC
:1031E0005A4617999047B8F10108F7D25B46214635
:1031F0003846179A14E142E00A220092C4F30252C0
:103200004FF0000A022A08D059F804CB032A4FEAEB
:10321000EC710AD00DE029E02AE009F1070121F064
:103220000702F2E802C1914609E00FFA8CFC4FEA6E
:10323000EC71042A03D14FFA8CFC4FEAEC7100299F
:1032400007DA0A460021DCF1000C61EB02012D22B5
:1032500002E0220504D52B228DF80420012203E090
:10326000E20701D02022F7E7904653E00A2102E06E
:1032700010220DE010214FF0000A00910BE0102207
:103280004FF0000A44F004040827009203E00822EB
:103290004FF0000A0092C4F30252022A05D059F8F6
:1032A00004CB0021032A08D009E009F1070121F02D
:1032B0000702F2E802C1914605E01FFA8CFC042ADD
:1032C00001D10CF0FF0C4FF00008220722D5702826
:1032D00027D0009B83F0100353EA0A0309D15CEA6C
:1032E000010206D030228DF804208DF8050002225C
:1032F0009046009B83F0080353EA0A030AD15CEA74
:10330000010201D1620705D530228DF804204FF06B
:1033100001087F1E582809D037A003900EA80290FC
:1033200013E040228DF804200122E1E737A0F4E702
:1033300053466046009AFDF705F984460398825C7F
:103340000298A0F10100029002705CEA0100EFD146
:10335000029806A9A1EB000000F1200A600702D53F
:1033600024F4803400E00127574502DDA7EB0A0072
:1033700000E0002000EB0A01009005984144A0EB1A
:1033800001000590E00306D45B462146179A059894
:1033900000F0BBF90544002706E001A85A46C05DCD
:1033A000179990476D1C7F1C4745F6DBE0030CD551
:1033B0005B462146179A059800F0A7F9054404E0FA
:1033C00030205A46179990476D1C0099481E00906E
:1033D0000029F5DC08E0029802995A460078491C59
:1033E0000291179990476D1CBAF10001AAF1010AE8
:1033F000F1DC6BE1092801003031323334353637E6
:103400003839616263646566000000003031323330
:1034100034353637383941424344454600000000D0
:1034200000F060F9054406F10106307800287FF4C9
:10343000E9AD19B02846BDE8F08F620700D4062731
:1034400009F1070222F0070CFCE80223E14603F031
:1034500000485FEA080C02D00FF27C2C0DE05FEA16
:10346000045C02D50FF2742C07E05FEAC47C02D042
:103470000FF26C2C01E0AFF2700C4FF0FF3823F02C
:103480000043CDF850C065280CD006DC452809D093
:1034900046281DD047283ED13EE0662818D0672830
:1034A00039D139E00021112F01DB112000E0781C17
:1034B000CDE9000106A90EA8FFF7EEFCDDE90F013A
:1034C0000E9A03910021009207F1010A04914EE047
:1034D0004FF000400097CDE9011006A90EA8FFF7B4
:1034E000DBFCDDE90F0203920E9B11990022DDF84F
:1034F0000CA00093049219B907F1010100EB010A35
:10350000B7EB0A0004D4C0F1FF3007F1010A0490C0
:10351000AAEB0700019046E0012F00DA0127002105
:10352000112F01DD112000E03846CDE9000106A988
:103530000EA8FFF7B1FCDDE90F010E9A03910021FF
:1035400004910092BA4621070CD40399514500DA40
:103550008A46BAF1010F05DD009AAAF10101515C1A
:10356000302908D0B84202DA10F1040F06DA01213E
:10357000CDE9011017E0AAF10101E9E7002805DC17
:10358000049901440491AAEB000102E0411C514559
:1035900000DD8A460499A0EB010000F101000190D2
:1035A0004FF000400290200704D40198504501DB01
:1035B000CDF8048000208DF84F0002980DF14F07E0
:1035C000B0F1004F25D02B200E9002984FF002084A
:1035D00000280CDA404202902D200E9007E00A21CC
:1035E0000298FCF799FF3031029007F8011DB8F1FD
:1035F0000001A8F10108F2DC02980028EFD1791E41
:103600000E980870307800F0200040F0450007F870
:10361000020D12A8A0EB070000F10708149800782B
:1036200000B1012000EB0A01019801EBE07105985F
:103630004144A0EB0100A0F101000590E00306D495
:103640005B462146179A059800F05FF805441498E8
:10365000007820B15A461799904705F10105E0031B
:1036600023D55B462146179A059800F04EF805448D
:103670001BE00498002807DBDDE90301884203DD35
:103680000098405C179901E0179930205A469047FE
:1036900004986D1C401C04900198401E019004D1B8
:1036A0002E205A46179990476D1CBAF10001AAF1D5
:1036B000010ADEDC05E017F8010B5A46179990471E
:1036C0006D1CB8F10001A8F10108F4DC5B4621464D
:1036D000179A0598A4E600002D0000002B000000BA
:1036E000200000002DE9F041044600251E46174643
:1036F000880405D406E039462020B04705F10105CD
:10370000641EF8D52846BDE8F0812DE9F041044655
:1037100000251E469046C80301D5302700E020272B
:10372000880405D506E041463846B04705F1010555
:10373000641EF8D52846BDE8F0810A68531C0B606A
:103740001070704770B5002B10DD99420EDB5B1EC8
:1037500000290BDD002402E09C4208DA641C065DAF
:10376000155DAE42F8D0401C491EF1E7002070BD47
:1037700070B5074D0446C1B22846FFF7F7FA40215D
:103780002846FFF757FA0128F9D1204670BD0000FE
:103790000044004010B5FFF7FDF8FEF71BFE4FF0A8
:1037A000E02017494161174AF02111700021816121
:1037B00007210161FDF7B8FEFDF7B6FA0423124AAE
:1037C00000211248FEF7BCF90623114A00211148D6
:1037D000FEF7B6F90723104A00211048FEF7B0F9AA
:1037E0003C230F4A00210F48FEF7AAF93B230E4A5B
:1037F00000210E48FEF7A4F9FEF788F9002010BD5D
:103800003F19010023ED00E0E403002075290008C2
:10381000240A0020B12D0008C41A00201126000837
:10382000D81F00202D0D00080407002011140008E7
:103830002DE9F04704469A469146884600250846F9
:10384000FCF71CFDC7B24846FCF718FD064650467B
:10385000FCF714FD0246B9198818102112302170A6
:103860000146617002217F2802DD0120A070032142
:103870000023635460184FF0060C80F801C04FF02D
:103880004D0C80F802C04FF0510C80F803C04FF08F
:10389000490C80F804C04FF0730C80F805C04FF05D
:1038A000640C80F806C04FF0700C80F807C04FF031
:1038B000030C80F808C04FF05E0C80F809C08372DA
:1038C0004FF03C0C80F80BC0037347730E3107E0D8
:1038D00018F8050001EB050C6D1C04F80C00EDB2A6
:1038E000BD42F5D3C819211823544E70801C002105
:1038F00006E000BF19F801504718491CE555C9B248
:10390000B142F7DB3044211823544A70801C002157
:1039100006E000BF1AF801304518491C6355C9B2CA
:103920009142F7DB1044BDE8F0870000010002007F
:103930000100030001000200010004000100020078
:103940000100030001000200010005000100020067
:103950000100030001000200010004000100020058
:103960000100030001000200010006000100020046
:103970000100030001000200010004000100020038
:103980000100030001000200010005000100020027
:103990000100030001000200010004000100020018
:1039A0000100030001000200010007000100020005
:1039B00001000300010002000100040001000200F8
:1039C00001000300010002000100050001000200E7
:1039D00001000300010002000100040001000200D8
:1039E00001000300010002000100060001000200C6
:1039F00001000300010002000100040001000200B8
:103A000001000300010002000100050001000200A6
:103A10000100030001000200010004000100020097
:103A2000010003000100020001000040404040404E
:103A30004040404041414141414040404040404081
:103A400040404040404040404040400502020202A9
:103A500002020202020202020202022020202020B0
:103A60002020202020020202020202029090909068
:103A70009090101010101010101010101010101046
:103A800010101010101002020202020288888888AA
:103A900088880808080808080808080808080808A6
:103AA0000808080808080202020240002B3A000831
:103AB00041542B43495053544152543D2254435096
:103AC000222C223131352E3135392E34312E3131FF
:103AD00036222C2238383031220D0A0041542B4333
:103AE0004950484541443D310D0A0041542B435053
:103AF000494E3F0D0A0041542B434950434C4F530C
:103B0000450D0A0041542B434950534855540D0A62
:103B100000000000343B000800000020C800000046
:103B2000782E0008FC3B0008C8000020982D0000FB
:103B3000882E0008000000000000000000000000C7
:103B40000000000000000000B03A0008F63A00084B
:103B5000043B0008DC3A0008EB3A000800000000D3
:103B600000000000000000006E6F6B696100000043
:103B700000000000000000007465726D696E616CE9
:103B800031323334006E6F6B6961313233000000C3
:103B900000000000000008420000000002040608C7
:103BA00000000000010203040102030406070809E3
:103BB0000000000000000000000000000000000005
:103BC00000000000000000000000000000000000F5
:103BD00000000000000000000000000000000000E5
:103BE00000000000000000000000000000000000D5
:0C3BF000000000000000000000000000C9
:0400000508000131BD
:00000001FF
